:020000040800F2
:10000000680600206D0100087501000877010008EE
:10001000790100087B0100087D0100080000000054
:100020000000000000000000000000007F01000848
:10003000810100080000000083010008510600084B
:100040008701000887010008870100088701000870
:10005000870100088701000887010008890200085D
:10006000E1020008F1030008870100088701000889
:100070008701000887010008870100088701000840
:100080008701000887010008870100088701000830
:100090008701000887010008870100088701000820
:1000A0008701000887010008870100088701000810
:1000B000C9060008450700088701000887010008F5
:1000C00087010008870100088701000887010008F0
:1000D00087010008870100088701000887010008E0
:1000E00087010008870100088701000800F002F876
:1000F00000F02CF80AA090E8000C82448344AAF196
:100100000107DA4501D100F021F8AFF2090EBAE893
:100110000F0013F0010F18BFFB1A43F0010318473B
:10012000F408000004090000002300240025002634
:10013000103A28BF78C1FBD8520728BF30C148BF4A
:100140000B6070471FB51FBD10B510BD00F031F832
:100150001146FFF7F7FF00F0ABFB00F04FF803B4D8
:10016000FFF7F2FF03BC00F057F800000948804792
:1001700009480047FEE7FEE7FEE7FEE7FEE7FEE789
:10018000FEE7FEE7FEE7FEE704480549054A064BA1
:100190007047000061060008ED00000868000020BC
:1001A000680600206802002068020020704770473F
:1001B0007047754600F02CF8AE4605006946534678
:1001C00020F00700854618B020B5FFF7DDFFBDE839
:1001D00020404FF000064FF000074FF000084FF0AE
:1001E000000BAC46ACE8C009ACE8C009ACE8C009FB
:1001F000ACE8C00921F007018D46704710B50446F0
:10020000AFF300802046BDE81040FFF7A8BF000014
:10021000004870470000002001491820ABBEFEE7EF
:10022000260002007047000041F21801C4F20201EA
:10023000086840F00D00086041F20401C4F20201B8
:10024000086840F4C0600860086840F40050086026
:1002500041F21C01C4F20201086840F00700086086
:1002600040F62801C4F200011120088040F2284124
:10027000C4F2000140F2077008802821C4F2000196
:1002800040F60F600880704740F21440C4F201004D
:1002900000688007002821D5FFE740F21441C4F22E
:1002A0000101086840F00200086040F26200C2F2FA
:1002B00000000178013101700078042807DBFFE7B6
:1002C00040F26201C2F2000100200870FFE740F234
:1002D0006101C2F2000101200870FFE770470000D1
:1002E00081B040F21440C4F20100006840070028C9
:1002F00040F17C80FFE740F21441C4F2010108683C
:1003000040F00400086040F26300C2F2000001788F
:10031000013101700078042807DBFFE740F2630138
:10032000C2F2000100200870FFE740F26300C2F251
:10033000000000780146009103284BD80099DFE8BF
:1003400001F0021023362C21C4F2000100200880A5
:1003500040F60C41C4F20101086820F03800086042
:1003600038E02C21C4F2000143F69820088040F6C2
:100370000C41C4F20101086820F0380008600868E8
:1003800040F00800086025E02C21C4F2000146F28C
:10039000A810088040F60C41C4F20101086820F062
:1003A00038000860086840F01000086012E02C2156
:1003B000C4F2000148F6B800088040F60C41C4F2CF
:1003C0000101086820F038000860086840F020004B
:1003D0000860FFE72421C4F20001002008804FF0EC
:1003E0008041088840F001000880FFE701B07047B5
:1003F00040F21440C4F201000068000700282BD529
:10040000FFE740F21441C4F20101086840F008001F
:10041000086040F26000C2F200000178C943017038
:10042000007878B9FFE740F20041C4F20001088883
:1004300020F00100088040F22441C4F200010020B5
:10044000088008E040F20041C4F20001088840F052
:1004500001000880FFE7FFE77047000080B584B027
:100460000821C4F201010020086040F20041C4F2FA
:100470000101086840F00E00086040F20841C4F233
:100480000101086820F00E00086040F20C41C4F23F
:100490000101086840F00E00086009200190012168
:1004A00000F0E4F907200290022100F0DFF90820B3
:1004B0000390032100F0DAF9019800F0BFF90298E7
:1004C00000F0BCF9039800F0B9F904B080BD000059
:1004D00080B500F001F880BD84B000200390029048
:1004E00041F20001C4F20201086840F48030086063
:1004F000FFE741F20000C4F20200006800F400309F
:100500000290039801300390FFE7029900200190C8
:1005100039B9FFE70398B0F5A06018BF012001903A
:10052000FFE70198C0070028E3D1FFE741F2000090
:10053000C4F2020000688003002803D5FFE7012011
:10054000029002E000200290FFE70298012851D1BA
:10055000FFE742F20001C4F20201086840F0100017
:100560000860086820F007000860086840F0020092
:10057000086041F20401C4F20201009108680860B9
:1005800008680860086840F480600860086820F423
:100590007C100860086840F4E810086041F200012F
:1005A000C4F20201086840F080700860FFE741F281
:1005B0000000C4F2020000688001002801D4FFE7B7
:1005C000F5E741F20401C4F20201086820F00300DB
:1005D0000860086840F002000860FFE741F204008C
:1005E000C4F20200006800F00C00082801D0FFE708
:1005F000F4E700E0FFE704B07047000080B582B088
:10060000009000980138B0F1807F03D3FFE701200C
:10061000019019E0009801384EF21401CEF2000169
:1006200008604FF0FF300F2100F020F94EF2180162
:10063000CEF20001002008604EF21002CEF200025D
:10064000072111600190FFE7019802B080BD000012
:1006500040F26401C2F2000108680130086070478E
:1006600080B541F20002C4F20202106840F00100BD
:10067000106041F20401C4F2020108680023CFF6C1
:10068000FF031840086010684FF6FF73CFF6F6635B
:1006900018401060106820F480201060086820F472
:1006A000FE00086041F20801C4F202014FF41F008D
:1006B0000860FFF70DFF4EF60851CEF200014FF033
:1006C0000060086080BD00001021C4F2000100201D
:1006D000088040F26201C2F20001087040F261013C
:1006E000C2F200010120087040F60C41C4F2010181
:1006F000086820F0380008607047000080B582B0BC
:100700002C21C4F2000148F6B70008802421C4F26D
:100710000001002008800C21C4F20001088840F08C
:10072000010008801C200190042100F09FF801982E
:1007300000F084F84FF08041088820F00100088024
:1007400002B080BD40F21041C4F2000100200880D8
:1007500040F26200C2F200000178013101700078BD
:10076000042807DBFFE740F26201C2F2000100202B
:100770000870FFE740F26101C2F200010120087039
:100780007047000080B582B040F22C41C4F20001F5
:1007900047F22F50088040F22440C4F200000021AC
:1007A000018040F20C42C4F20002108840F00100C7
:1007B00010801D20019000F059F8019800F03EF8DB
:1007C00040F20041C4F20001088820F001000880D6
:1007D00002B080BD40F62C01C4F2000140F2E730C7
:1007E000088040F62401C4F200010020088040F691
:1007F0003401C4F20001088040F63801C4F200015F
:10080000088040F61801C4F20001088840F060003A
:100810000880088840F4C040088040F62001C4F2F7
:100820000001088840F01100088040F60001C4F281
:100830000001088840F001000880704781B08DF801
:1008400003009DF9030000280ED4FFE79DF9031073
:1008500001F01F02012090404A094EF20011CEF231
:10086000000141F82200FFE701B0704782B08DF827
:10087000070000919DF9070000280AD4FFE70098BF
:1008800000019DF907104EF20042CEF2000288549A
:100890000BE0009800019DF8071001F00F014EF6E3
:1008A0001452CEF200028854FFE702B070470000F5
:1008B00080B584B0002002900390FFF7B5FC029849
:1008C00040F60002C4F201024FF04431116040F6DC
:1008D0000042C4F2010242F22221C4F2224111601C
:1008E00040F60442C4F2010244F24421C4F24441FD
:1008F000116040F60C01C4F20101086040F60C41A1
:10090000C4F20101086062B6FFF73CFFFFF7F6FE94
:10091000FFF760FFFFF7A2FD42F22830FFF76EFEFF
:10092000FFE740F26100C2F20000007800286FD0BB
:10093000FFE740F26200C2F2000000780146019138
:1009400003285ED80199DFE801F002152C4440F637
:100950003401C4F200010020088040F60C41C4F2CA
:100960000101086820F480600860086820F0070032
:10097000086046E040F63401C4F20001C820088057
:1009800040F60C41C4F20101086840F48060086040
:10099000086820F007000860086840F0010008605F
:1009A0002FE040F63401C4F200014FF416700880C5
:1009B00040F60C41C4F20101086840F48060086010
:1009C000086820F007000860086840F0020008602E
:1009D00017E040F63401C4F2000140F2E73008802D
:1009E00040F60C41C4F20101086840F480600860E0
:1009F000086820F007000860086840F004000860FC
:100A0000FFE740F26101C2F2000100200870FFE739
:100A100087E70000240A00080000002068060000A4
:040A200028010008A1
:040000050800016D81
:00000001FF
