:020000040800F2
:10000000780600206D0100087501000877010008DE
:10001000790100087B0100087D0100080000000054
:100020000000000000000000000000007F01000848
:10003000810100080000000083010008E5030008BA
:100040008701000887010008870100088701000870
:100050008701000887010008870100088701000860
:100060008701000887010008870100088701000850
:100070008701000887010008870100088701000840
:100080008701000887010008870100088701000830
:100090008701000887010008870100088701000820
:1000A0008701000887010008870100088701000810
:1000B0008701000887010008870100088701000800
:1000C00087010008870100088701000887010008F0
:1000D00087010008870100088701000887010008E0
:1000E00087010008870100088701000800F002F876
:1000F00000F02CF80AA090E8000C82448344AAF196
:100100000107DA4501D100F021F8AFF2090EBAE893
:100110000F0013F0010F18BFFB1A43F0010318473B
:10012000F40500000406000000230024002500263A
:10013000103A28BF78C1FBD8520728BF30C148BF4A
:100140000B6070471FB51FBD10B510BD00F050F813
:100150001146FFF7F7FF00F091FA00F06EF803B4D4
:10016000FFF7F2FF03BC00F075F800000948804774
:1001700009480047FEE7FEE7FEE7FEE7FEE7FEE789
:10018000FEE7FEE7FEE7FEE704480549054A064BA1
:1001900070470000F5030008ED000008780000201B
:1001A00078060020780200207802002010B5431C59
:1001B00002E010F8011B71B18107FAD14FF0013252
:1001C00002C88C1A8C4314EAC211F9D0C01A0A066C
:1001D00003D0C01E10BDC01A10BD0A0401D0801E7D
:1001E00010BD0902FCD0401E10BD7047704770471B
:1001F000754600F02BF8AE4605006946534620F0E0
:100200000700854618B020B5FFF7BEFFBDE82040C7
:100210004FF000064FF000074FF000084FF0000BC2
:10022000AC46ACE8C009ACE8C009ACE8C009ACE831
:10023000C00921F007018D46704710B50446AFF3A1
:1002400000802046BDE81040FFF789BF0048704796
:100250000000002001491820ABBEFEE72600020086
:100260007047000080B500F001F880BD84B0002028
:100270000390029041F20001C4F20201086840F4C8
:1002800080300860FFE741F20000C4F2020000681D
:1002900000F400300290039801300390FFE70299C8
:1002A0000020019039B9FFE70398B0F5A06018BFAE
:1002B00001200190FFE70198C0070028E3D1FFE784
:1002C00041F20000C4F2020000688003002803D558
:1002D000FFE70120029002E000200290FFE7029871
:1002E000012851D1FFE742F20001C4F2020108687F
:1002F00040F010000860086820F0070008600868F7
:1003000040F00200086041F20401C4F202010091D1
:100310000868086008680860086840F48060086041
:10032000086820F47C100860086840F4E810086051
:1003300041F20001C4F20201086840F080700860D8
:10034000FFE741F20000C4F20200006880010028CB
:1003500001D4FFE7F5E741F20401C4F202010868A5
:1003600020F003000860086840F002000860FFE722
:1003700041F20400C4F20200006800F00C000828FA
:1003800001D0FFE7F4E700E0FFE704B070470000AA
:1003900080B582B0009000980138B0F1807F03D31F
:1003A000FFE70120019019E0009801384EF2140196
:1003B000CEF2000108604FF0FF300F2100F03CF951
:1003C0004EF21801CEF20001002008604EF2100239
:1003D000CEF20002072111600190FFE7019802B000
:1003E00080BD000040F26001C2F2000108680130E7
:1003F0000860704780B541F20002C4F20202106842
:1004000040F00100106041F20401C4F202010868EA
:100410000023CFF6FF031840086010684FF6FF7303
:10042000CFF6F66318401060106820F4802010604A
:10043000086820F4FE00086041F20801C4F20201DD
:100440004FF41F000860FFF70DFF4EF60851CEF283
:1004500000014FF00060086080BD000081B0FFE740
:1004600043F60000C4F2010000888006002801D491
:10047000FFE7F5E743F60400C4F2010000888DF8B9
:1004800003009DF8030001B07047000041F218011D
:10049000C4F20201086840F00400086040F604015C
:1004A000C4F20101086820F47F600860086840F029
:1004B00030000860086840F080000860086820F498
:1004C00040700860086840F40060086040F60C0165
:1004D000C4F20101086840F48060086070470000C1
:1004E00081B08DF803009DF8030043F60401C4F2C7
:1004F00001010880FFE743F60000C4F20100008814
:100500004006002801D4FFE7F5E701B0704700007E
:1005100080B584B003900398FFF748FE0290002056
:100520000190FFE701980299884210DAFFE70398EB
:100530000199405C30B1FFE703980199405CFFF7F7
:10054000CFFFFFE7FFE7019801300190EAE70A20BB
:10055000FFF7C6FF04B080BD80B586B0059004915A
:1005600000200390FFE7FFF779FF8DF80B00039859
:10057000049900228842104638BF01209DF80B30B4
:100580001F2B1146C8BF01217F2BB8BF012211408C
:10059000084209D0FFE79DF80B000599039A88549B
:1005A000039801300390FFE7FFE79DF80B10002050
:1005B0000D29019007D0FFE79DF80B001B3818BFED
:1005C00001200190FFE70198C0070028CBD1FFE789
:1005D0000020039006B080BD41F21801C4F2020170
:1005E000086844F201021043086043F60C01C4F2AB
:1005F0000101088820F400500880088820F4805009
:100600000880088820F48060088043F61002C4F255
:100610000102108820F44050108043F60802C4F212
:10062000010240F6A66010800C200880088840F483
:10063000005008807047000082B08DF807000091DC
:100640009DF9070000280AD4FFE7009800019DF9F2
:1006500007104EF20042CEF2000288540BE00098E0
:1006600000019DF8071001F00F014EF61452CEF272
:1006700000028854FFE702B07047000080B582B0E6
:100680000020019041F21801C4F20201086840F014
:1006900004000860086844F201021043086041F257
:1006A0000401C4F20201086840F400500860FFF73A
:1006B000EDFEFFF791FF42F22830FFF769FE40F2AE
:1006C0000670C0F60000FFF723FFFFE740F264006A
:1006D000C2F2000000900C21FFF73EFF40F2FE60E6
:1006E000C0F60000FFF714FF0098FFF711FF009914
:1006F00000200861C860886048600860E6E7696EAD
:100700007075743A200068656C6C6F20776F726C3E
:100710006421000024070008000000207806000083
:0407200028010008A4
:040000050800016D81
:00000001FF
