:020000040800F2
:1000000058070020A5010008AD010008AF01000855
:10001000B1010008B3010008B501000800000000AC
:10002000000000000000000000000000B701000810
:10003000B901000800000000BB010008CD05000860
:10004000BF010008BF010008BF010008BF01000890
:10005000BF010008BF010008CD020008BF01000871
:10006000BF010008BF010008BF010008BF01000870
:10007000BF010008BF010008BF010008BF01000860
:10008000BF010008BF010008BF010008BF01000850
:10009000BF010008BF010008BF0100086903000894
:1000A000BF010008BF010008BF010008BF01000830
:1000B000BF010008BF010008BF010008BF01000820
:1000C000BF010008BF010008BF010008BF01000810
:1000D000BF010008BF010008BF010008BF01000800
:1000E000BF010008BF010008BF01000800F002F8CE
:1000F00000F02EF80AA090E8000C82448344AAF194
:100100000107DA4501D100F023F8AFF2090EBAE891
:100110000F0013F0010F18BFFB1A43F0010318473B
:10012000D4070000E4070000002300240025002677
:10013000103A28BF78C1FBD8520728BF30C148BF4A
:100140000B6070471FB500F062F81FBD10B510BD01
:1001500000F069F81146FFF7F5FF00F0C9FA00F06A
:1001600087F803B4FFF7F2FF03BC00F091F800003A
:100170000B49D1F800C04A685CF8043B1068184489
:1001800042F8040B8C4528BFA1F1DC0C8A4228BF41
:10019000A1F1DC02C1F800C04A6020F000407047C5
:1001A000DC0000200948804709480047FEE7FEE7D9
:1001B000FEE7FEE7FEE7FEE7FEE7FEE7FEE7FEE717
:1001C00004480549054A064B70470000DD05000854
:1001D000ED000008580100205807002058030020B7
:1001E000580300200B4910B5A1F17C020A4CC2E96A
:1001F0003712372106E000EB104342F82130074B5D
:1002000000FB03400B1EA1F10101F4DC10BD012035
:10021000E8E700007C000020E119D666CD0D010062
:10022000704770477047754600F02CF8AE460500E1
:100230006946534620F00700854618B020B5FFF701
:10024000BFFFBDE820404FF000064FF000074FF021
:1002500000084FF0000BAC46ACE8C009ACE8C009A0
:10026000ACE8C009ACE8C00921F007018D46704731
:1002700010B50446AFF300802046BDE81040FFF7FC
:1002800070BF000000487047E40000207047000085
:1002900001491820ABBEFEE72600020082B00190A3
:1002A00040F25010C2F2000000680090FFE740F2F8
:1002B0005010C2F2000000680099401A019988426B
:1002C00001D2FFE7F3E702B07047000080B582B0CB
:1002D00000208DF8070040F21440C4F201000068CD
:1002E0009DF80710C840C00768B1FFE79DF80710E8
:1002F000012000FA01F240F21441C4F20101086841
:1003000010430860FFE740F24C10C2F20000017891
:10031000C9430170007890B1FFE740F60C01C4F2C8
:1003200001010020086040F20041C4F201010868A8
:1003300020F080000860172000F084F912E040F2FD
:100340004511C2F200010878C043087040F2004134
:10035000C4F20101086840F080000860172000F036
:100360008DF9FFE702B080BD80B582B007208DF81F
:10037000070040F21440C4F2010000689DF8071025
:10038000C840C00740B3FFE79DF80710012000FAFE
:1003900001F240F21441C4F2010108681043086000
:1003A000FFF7E6FE4AF6AB21C2F6AA2180FB012147
:1003B00001EBD17101EB4101A0EB4100013040F2B2
:1003C0004811C2F20001086040F24411C2F200017B
:1003D0000878C0430870FFE702B080BD80B582B0E6
:1003E0000821C4F20101112008600C21C4F20101AE
:1003F0004FF48050086040F20041C4F201010868E7
:1004000040F08100086040F20841C4F20101086830
:1004100020F08100086040F20C41C4F2010108683C
:1004200040F08100086006200090012100F03EF9B4
:1004300017200190022100F039F9009800F01EF910
:10044000019800F01BF902B080BD000080B500F0FB
:1004500001F880BD84B000200390029041F20001B9
:10046000C4F20201086840F480300860FFE741F2FE
:100470000000C4F20200006800F40030029003980B
:1004800001300390FFE702990020019039B9FFE79E
:100490000398B0F5A06018BF01200190FFE7019814
:1004A000C0070028E3D1FFE741F20000C4F20200D8
:1004B00000688003002803D5FFE70120029002E0D6
:1004C00000200290FFE70298012851D1FFE742F295
:1004D0000001C4F20201086840F0100008600868DA
:1004E00020F007000860086840F00200086041F250
:1004F0000401C4F2020100910868086008680860FD
:10050000086840F480600860086820F47C10086087
:10051000086840F4E810086041F20001C4F20201EA
:10052000086840F080700860FFE741F20000C4F204
:10053000020000688001002801D4FFE7F5E741F2DE
:100540000401C4F20201086820F003000860086892
:1005500040F002000860FFE741F20400C4F202002C
:10056000006800F00C00082801D0FFE7F4E700E085
:10057000FFE704B07047000080B582B0009000989B
:100580000138B0F1807F03D3FFE70120019019E02B
:10059000009801384EF21401CEF2000108604FF0CD
:1005A000FF300F2100F082F84EF21801CEF2000168
:1005B000002008604EF21002CEF200020721116006
:1005C0000190FFE7019802B080BD000040F2501199
:1005D000C2F20001086801300860704780B541F23E
:1005E0000002C4F20202106840F00100106041F203
:1005F0000401C4F2020108680023CFF6FF0318408B
:10060000086010684FF6FF73CFF6F663184010606D
:10061000106820F480201060086820F4FE00086054
:1006200041F20801C4F202014FF41F000860FFF715
:100630000DFF4EF60851CEF200014FF00060086049
:1006400080BD000081B08DF803009DF903000028F3
:1006500012D4FFE79DF9031001F01F020120904022
:100660004A094EF28011CEF2000141F82200BFF398
:100670004F8FBFF36F8FFFE701B0704781B08DF8E8
:1006800003009DF9030000280ED4FFE79DF9031035
:1006900001F01F02012090404A094EF20011CEF2F3
:1006A000000141F82200FFE701B0704782B08DF8E9
:1006B000070000919DF9070000280AD4FFE7009881
:1006C00000019DF907104EF20042CEF2000288545C
:1006D0000BE0009800019DF8071001F00F014EF6A5
:1006E0001452CEF200028854FFE702B070470000B7
:1006F00080B58CB000200B9041F21802C4F20202C7
:10070000116841F00D01116041F20402C4F20202CD
:10071000116841F4C061116040F60002C4F20102A8
:1007200042F22421C2F22221116040F60042C4F2BA
:1007300001024FF04431116040F60C01C4F2010196
:10074000086040F60C41C4F20101086042F2283012
:10075000FFF712FF62B6FFF741FEFFE740F24510D8
:10076000C2F200000078A0B1FFE740F60C01C4F22D
:1007700001010991FF2008604FF47A70FFF78EFDA8
:1007800009990020086040F24511C2F2000108708A
:10079000FFE740F24410C2F200000078002800F0A9
:1007A000A880FFE740F24810C2F20000006801385C
:1007B00001460891052800F29B800899DFE801F0C6
:1007C00003192F455B7140F60C01C4F2010107913A
:1007D000086840F0100008604FF47A70FFF75EFD83
:1007E00007990020086040F24411C2F2000108702D
:1007F0007EE040F60C01C4F201010691086840F069
:10080000280008604FF47A70FFF748FD0699002031
:10081000086040F24411C2F20001087068E040F63E
:100820000C01C4F201010591086840F0380008602D
:100830004FF47A70FFF732FD05990020086040F20E
:100840004411C2F20001087052E040F60C01C4F2FB
:1008500001010491086840F0AA0008604FF47A7022
:10086000FFF71CFD04990020086040F24411C2F219
:10087000000108703CE040F60C01C4F20101039154
:10088000086840F0BA0008604FF47A70FFF706FD80
:1008900003990020086040F24411C2F20001087080
:1008A00026E000200A90FFE70A98022819DCFFE7FB
:1008B00040F60C01C4F201010191086840F0EE001D
:1008C000086040F24D100290FFF7E8FC019A029890
:1008D00000211160FFF7E2FCFFE70A9801300A905F
:1008E000E2E740F24411C2F2000100200870FFE785
:1008F000FFE733E704090008000000205807000064
:0409000028010008C2
:04000005080001A549
:00000001FF
