:020000040800F2
:10000000600600206D0100087501000877010008F6
:10001000790100087B0100087D0100080000000054
:100020000000000000000000000000007F01000848
:10003000810100080000000083010008850100081C
:100040008701000887010008870100088701000870
:100050008701000887010008870100088701000860
:100060008701000887010008870100088701000850
:100070008701000887010008870100088701000840
:100080008701000887010008870100088701000830
:100090008701000887010008870100088701000820
:1000A0008701000887010008870100088701000810
:1000B0008701000887010008870100088701000800
:1000C00087010008870100088701000887010008F0
:1000D00087010008870100088701000887010008E0
:1000E00087010008870100088701000800F002F876
:1000F00000F02CF80AA090E8000C82448344AAF196
:100100000107DA4501D100F021F8AFF2090EBAE893
:100110000F0013F0010F18BFFB1A43F0010318473B
:1001200024060000340600000023002400250026D9
:10013000103A28BF78C1FBD8520728BF30C148BF4A
:100140000B6070471FB51FBD10B510BD00F031F832
:100150001146FFF7F7FF00F0C9FA00F04FF803B4BB
:10016000FFF7F2FF03BC00F057F800000948804792
:1001700009480047FEE7FEE7FEE7FEE7FEE7FEE789
:10018000FEE7FEE7FEE7FEE704480549054A064BA1
:1001900070470000C1050008ED0000086000002065
:1001A0006006002060020020600200207047704757
:1001B0007047754600F02CF8AE4605006946534678
:1001C00020F00700854618B020B5FFF7DDFFBDE839
:1001D00020404FF000064FF000074FF000084FF0AE
:1001E000000BAC46ACE8C009ACE8C009ACE8C009FB
:1001F000ACE8C00921F007018D46704710B50446F0
:10020000AFF300802046BDE81040FFF7A8BF000014
:10021000004870470000002001491820ABBEFEE7EF
:10022000260002007047000082B08DF807009DF89C
:10023000070001460091102836D80099DFE801F048
:1002400009341034193434342234343434343434EA
:100250002B0041F20401C4F202010868086023E0A7
:1002600041F20401C4F20201086840F40050086041
:100270001AE041F20401C4F20201086840F420507F
:10028000086011E041F20401C4F20201086840F480
:100290004050086008E041F20401C4F2020108681D
:1002A00040F460500860FFE702B0704780B582B04C
:1002B0008DF807009DF80700000900F095F89DF8FB
:1002C000070000F00F0000F08FF802B080BD0000C2
:1002D00080B582B0019000208DF80300FFE70198FF
:1002E0009DF80310405CC0B1FFE79DF803001028A3
:1002F00007D1FFE70C2000F049F8002000F046F895
:10030000FFE701989DF80310405CFFF7CFFF9DF8D1
:10031000030001308DF80300E1E702B080BD00006A
:1003200080B582B0032000F0B5F90220009000F003
:100330002DF8009800F02AF8082000F027F8002097
:10034000019000F023F80F2000F020F8019800F051
:100350001DF8062000F01AF802B080BD41F2180125
:10036000C4F20201086840F00800086040F6044149
:10037000C4F20101086800F07F400860086842F29A
:100380002222C0F2220210430860704780B584B078
:100390008DF80F0040F60C41C4F20101019108688C
:1003A00020F470600860086820F4805008600868D5
:1003B00040F4005008609DF80F20086840EA0220D1
:1003C00008600120029000F065F9019A0298116816
:1003D00021F400511160116841F48051116000F066
:1003E00059F904B080BD000080B584B08DF80F00CD
:1003F00040F60C41C4F201010191086820F47060DC
:100400000860086840F480500860086840F40050B4
:1004100008609DF80F20086840EA0220086001206B
:10042000029000F037F9019A0298116821F4005106
:10043000116000F02FF904B080BD000080B500F01D
:1004400001F880BD84B000200390029041F20001C9
:10045000C4F20201086840F480300860FFE741F20E
:100460000000C4F20200006800F40030029003981B
:1004700001300390FFE702990020019039B9FFE7AE
:100480000398B0F5A06018BF01200190FFE7019824
:10049000C0070028E3D1FFE741F20000C4F20200E8
:1004A00000688003002803D5FFE70120029002E0E6
:1004B00000200290FFE70298012851D1FFE742F2A5
:1004C0000001C4F20201086840F0100008600868EA
:1004D00020F007000860086840F00200086041F260
:1004E0000401C4F20201009108680860086808600D
:1004F000086840F480600860086820F47C10086098
:10050000086840F4E810086041F20001C4F20201FA
:10051000086840F080700860FFE741F20000C4F214
:10052000020000688001002801D4FFE7F5E741F2EE
:100530000401C4F20201086820F0030008600868A2
:1005400040F002000860FFE741F20400C4F202003C
:10055000006800F00C00082801D0FFE7F4E700E095
:10056000FFE704B07047000041F20001C4F202014D
:10057000086840F480300860FFE741F20000C4F2F0
:10058000020000688003002801D4FFE7F5E741F28C
:100590000401C4F20201086820F400300860086811
:1005A00040F480300860086840F4E0100860086893
:1005B00040F001000860086820F0F0000860704713
:1005C00080B541F20002C4F20202106840F001005E
:1005D000106041F20401C4F2020108680023CFF662
:1005E000FF031840086010684FF6FF73CFF6F663FC
:1005F00018401060106820F480201060086820F413
:10060000FE00086041F20801C4F202014FF41F002D
:100610000860FFF713FF4EF60851CEF200014FF0CD
:100620000060086080BD000081B08DF8030041F2D9
:100630001801C4F20201086840F00100086041F2AC
:100640001C01C4F20201086840F0100008609DF827
:1006500003104FF0FF3000EB410041F22801C4F2DB
:100660000001088041F22C01C4F200014FF6FF7036
:10067000088041F22401C4F200010020088041F208
:100680000001C4F20001088840F00100088001B0B8
:100690007047000080B582B0019000200090FFE715
:1006A00000980199884209D2FFE74FF47A7000F070
:1006B00007F8FFE7009801300090F1E702B080BD35
:1006C00081B0009041F22401C4F2000100200880B2
:1006D000FFE741F22400C4F200000088009988423C
:1006E00001D2FFE7F5E701B07047000080B582B0A6
:1006F00000200190FFF738FF0220FFF795FD41F23F
:100700001801C4F20201086840F00C000860086893
:1007100040F011000860FFF721FE2420FFF784FF5E
:10072000FFF7FEFD40F23470C0F60000FFF7D0FD89
:10073000FFE7FEE748656C6C6F20776F726C642191
:1007400000000000540700080000002060060000C0
:040750002801000874
:040000050800016D81
:00000001FF
