:020000040800F2
:1000000060070020C1010008C9010008CB010008F9
:10001000CD010008CF010008D10100080000000058
:10002000000000000000000000000000D3010008F4
:10003000D501000800000000D701000855040008A1
:10004000DB010008DB010008DB010008DB01000820
:10005000DB010008DB010008DB010008DB01000810
:10006000DB010008DB010008DB010008DB01000800
:10007000DB010008DB010008DB010008DB010008F0
:10008000DB010008DB010008DB010008DB010008E0
:10009000DB010008DB010008DB010008DB010008D0
:1000A000DB010008DB010008DB010008DB010008C0
:1000B000DB010008DB010008DB010008DB010008B0
:1000C000DB010008DB010008DB010008DB010008A0
:1000D000DB010008DB010008DB010008DB01000890
:1000E000DB010008DB010008DB01000800F002F87A
:1000F00000F03CF80AA090E8000C82448344AAF186
:100100000107DA4501D100F031F8AFF2090EBAE883
:100110000F0013F0010F18BFFB1A43F0010318473B
:10012000D81D0000F81D0000103A24BF78C878C11F
:10013000FAD8520724BF30C830C144BF04680C60ED
:10014000704700000023002400250026103A28BF35
:1001500078C1FBD8520728BF30C148BF0B60704739
:100160001FB500F062F81FBD10B510BD00F07CF89F
:100170001146FFF7F5FF00F0E3F900F09AF803B439
:10018000FFF7F2FF03BC00F09FF800000B49D1F825
:1001900000C04A685CF8043B1068184442F8040B3D
:1001A0008C4528BFA1F1DC0C8A4228BFA1F1DC02FA
:1001B000C1F800C04A6020F000407047F400002001
:1001C0000948804709480047FEE7FEE7FEE7FEE7EB
:1001D000FEE7FEE7FEE7FEE7FEE7FEE70448054927
:1001E000054A064B7047000065040008ED00000852
:1001F00060010020600700206003002060030020F1
:100200000B4910B5A1F17C020A4CC2E93712372123
:1002100006E000EB104342F82130074B00FB03409F
:100220000B1EA1F10101F4DC10BD0120E8E7000084
:1002300094000020E119D666CD0D0100704770478B
:10024000704710B500F008F8006810BD10B50446FE
:1002500000F002F8046010BD00487047FC00002068
:1002600000487047FC0000207546FFF7F9FFAE46D6
:1002700005006946534620F00700854618B020B5B2
:10028000FFF7ACFFBDE820404FF000064FF000073D
:100290004FF000084FF0000BAC46ACE8C009ACE8EA
:1002A000C009ACE8C009ACE8C00921F007018D46DF
:1002B000704710B50446AFF300802046BDE81040FB
:1002C000FFF75DBF7047000001491820ABBEFEE795
:1002D0002600020080B500F001F880BD84B0002047
:1002E0000390029041F20001C4F20201086840F458
:1002F00080300860FFE741F20000C4F202000068AD
:1003000000F400300290039801300390FFE7029957
:100310000020019039B9FFE70398B0F5A06018BF3D
:1003200001200190FFE70198C0070028E3D1FFE713
:1003300041F20000C4F2020000688003002803D5E7
:10034000FFE70120029002E000200290FFE7029800
:10035000012851D1FFE742F20001C4F2020108680E
:1003600040F010000860086820F007000860086886
:1003700040F00200086041F20401C4F20201009161
:100380000868086008680860086840F480600860D1
:10039000086820F47C100860086840F4E8100860E1
:1003A00041F20001C4F20201086840F08070086068
:1003B000FFE741F20000C4F202000068800100285B
:1003C00001D4FFE7F5E741F20401C4F20201086835
:1003D00020F003000860086840F002000860FFE7B2
:1003E00041F20400C4F20200006800F00C0008288A
:1003F00001D0FFE7F4E700E0FFE704B0704700003A
:1004000080B582B0009000980138B0F1807F03D3AE
:10041000FFE70120019019E0009801384EF2140125
:10042000CEF2000108604FF0FF300F2100F04EF8CF
:100430004EF21801CEF20001002008604EF21002C8
:10044000CEF20002072111600190FFE7019802B08F
:1004500080BD000040F25C11C2F20001086801306A
:100460000860704780B541F20002C4F202021068D1
:1004700040F00100106041F20401C4F2020108687A
:100480000023CFF6FF031840086010684FF6FF7393
:10049000CFF6F66318401060106820F480201060DA
:1004A000086820F4FE00086041F20801C4F202016D
:1004B0004FF41F000860FFF70DFF4EF60851CEF213
:1004C00000014FF00060086080BD000082B08DF830
:1004D000070000919DF9070000280AD4FFE7009863
:1004E00000019DF907104EF20042CEF2000288543E
:1004F0000BE0009800019DF8071001F00F014EF687
:100500001452CEF200028854FFE702B07047000098
:1005100082B0019040F25C10C2F2000000680090CE
:10052000FFE740F25C10C2F2000000680099401A38
:100530000199884201D2FFE7F3E702B0704700005B
:1005400080B584B00020039041F21802C4F2020288
:10055000116841F00C01116040F60002C4F2010282
:1005600042F22421C2F22221116040F60402C4F2B8
:10057000010244F24241C4F24441116040F600429B
:10058000C4F2010242F22221C4F24441116040F659
:100590000C01C4F20101086042F22830FFF730FF7D
:1005A000FFE7FFF7F3FD024648F6AD30C6F6DB0085
:1005B00082FB0001081300EBD17042F2107100FBC6
:1005C0001120029000200190FFE70198312808DCFB
:1005D000FFE7029800F006F8FFE70198013001906C
:1005E000F3E7DEE780B58AB009900020ADF81A0085
:1005F000FFE7BDF81A0003283BDCFFE709980190EC
:10060000BDF81A00C0F1030001F04FF802460B4696
:10061000002002900021C4F22401039100F0E4F8CC
:1006200001F014F80146019890FBF1F0BDF81A2092
:1006300007A921F8120009980490BDF81A00C0F12A
:10064000030001F032F8024602980B46039900F0CD
:10065000CBF800F0FBFF049A014692FBF1F000FB9F
:1006600011200990FFE7BDF81A000130ADF81A001B
:10067000BFE700200590FFE70598032829DCFFE786
:10068000059901208840C04340F60C41C4F20101A5
:1006900008600598C0F1030107A830F8111040F276
:1006A0000000C2F2000030F8112040F60C01C4F244
:1006B000010100910868104308600520FFF728FF3A
:1006C0000099086800200860FFE705980130059050
:1006D000D2E70AB080BD490050EAC12018BF04200B
:1006E0004A0D18BF40F0010040F2FF72B2EB515FBB
:1006F00008BF40F00200012808BF052070472DE91F
:10070000F0414F1E00EBC7010446D1E90001154638
:100710001E4637F006020DD02A46334601F018F87F
:100720007F1E04EBC703D3E9002300F079FD37F007
:100730000602F1D1022F25D0042F13D0062F18BFA7
:10074000BDE8F0812A46334601F002F8D4E90A23D5
:1007500000F066FD2A46334600F0FAFFD4E908238C
:1007600000F05EFD2A46334600F0F2FFD4E906238E
:1007700000F056FD2A46334600F0EAFFD4E9042390
:1007800000F04EFD2A46334600F0E2FFD4E9022392
:1007900000F046FD2A46334600F0DAFFD4E9002394
:1007A000BDE8F04100F03CBD00221346104601496F
:1007B00000F0F2BD0000F03F00F032BD0022134611
:1007C0001046114600F0E8BD40F2013200204FF023
:1007D000E04101F003BB0000024A0020110701F0D4
:1007E000FDBA000001FDFFFF2DE9F04D1D460C464E
:1007F00094B0174621F0004123F00043002814BFB5
:100800004FF0010C4FF0000C0CEB440CFB4A0CEBCE
:1008100002064FEA620C66452BD33E0018BF012644
:1008200006EB45061644F64A964222D3F54A53EAA9
:10083000070C02D0944205D148B914B000201146EB
:10084000BDE8F08D002808BF4FF0000C01D04FF03C
:10085000010C0CEB440212F5001F0AD8002F14BF44
:100860004FF0010C4FF0000C0CEB450212F5001F8D
:1008700007D914B03A462B462146BDE8F04DFFF7A4
:100880009BBF0022DFF880A3002CB8BF534526DAB7
:10089000DFF878C36345A8BF022220DADFF864C31B
:1008A0009C451CDCDFF868C30CEB235CBCF1140F27
:1008B00008DDCCF1340627FA06FC0CFA06F6BE4237
:1008C0000DD108E05FB9CCF1140623FA06FC0CFA4E
:1008D00006F69E4203D10CF00102C2F1020251EA77
:1008E000000C19D1002D17DA002C18BF022A01D0F4
:1008F000012A07D00220FFF7A9FC14B0BDE8F04D93
:10090000FFF752BF0220FFF7A1FCFFF74DFF14B025
:1009100081F00041BDE8F08DB7F1000C6CD153457A
:1009200025D104F1804212F5801201BF0028002079
:10093000B44914B008BFBDE8F08DB248884207DC66
:10094000002DA1BF6046294614B0BDE8F08D07E038
:10095000002DBFBF604685F0004114B0BDE8F08DAA
:10096000AC497944D1E9000114B0BDE8F08DDFF85D
:1009700094C2634525D1002D1FDA19B1514512D11A
:10098000D8B909E0002840F0F6829F4A214614B009
:1009900062F31E01BDE8F08D0020214614B060F323
:1009A0001E01BDE8F08D08DA14B02346BDE8F04D15
:1009B00002460020614600F0EFBC14B02146BDE8BD
:1009C000F08D514518DAB5F1804F0DD0A5F1005CDE
:1009D000BCF1FF5C10D1B4F1000C0DDB14B061462A
:1009E000BDE8F04D00F0F6BB234614B00246BDE86A
:1009F000F04D194600F0ACBE060024F0004C3BD18F
:100A0000D9B1514533D1002C06DD002DA1BF002006
:100A1000514614B0BDE8F08D002C01DD002D1BDB2C
:100A2000002C13DA002D11DB012A4FF0000014BF57
:100A30007549794914B0BDE8F08D022A18BF002C21
:100A40000AD0012A08D1002C06DA0AE0002CB8BF2F
:100A5000002D11DA012A04D0002014B00146BDE8AF
:100A6000F08D14B000204FF00041BDE8F08DA1F1F1
:100A70004050B0F17F601AD0012000EBE47050EAE2
:100A8000020421D05F4C521E4FF0000B104304BFF4
:100A90004FF0000B614C624883427DDD614A624841
:100AA000934229DD884217DB002D2FDB41E0002C2B
:100AB00000DA4AB1022A0CBF01204FF0FF3014B017
:100AC000BDE8F04D00F0F1BD0120FFF7BFFB14B011
:100AD000BDE8F04DFFF772BE4A4A8A420CDC002D99
:100AE00014DC0220FFF7B2FBFFF776FE61F31E0471
:100AF00014B02146BDE8F08D814202DA002D18DAEB
:100B000004E0404B994220DD002D12DD0220FFF76A
:100B10009DFBFFF759FE05460E46002253465846F8
:100B2000214600F015FE14B066F31E012846BDE80C
:100B3000F08D0220FFF78AFBFFF74EFE0A462146A2
:100B400014B062F31E01BDE8F08D0022304661460C
:100B500001F024F8064688466FF0010201F03EF9E4
:100B60004FF05532314B00F027FF3246434600F03C
:100B7000EFFD00222E4B00F01FFF8A46324643460F
:100B800002901046194600F0E3FD5346029A00F029
:100B9000DFFD8246324600E054E0059143464FF0C7
:100BA000C040244900F0D4FDCDE90C01224A214B7C
:100BB0005046059900F0CCFD824601911F4A204B1A
:100BC0003046414600F0C4FD5246019B00F0E6FF6E
:100BD00082460B4602460991DDE90C0100F020FB3C
:100BE000DDE90C2300268846304600F0D7FF524648
:100BF000099B00F0E1FE024600F07EB9FFFF1F00F6
:100C0000FFFF0F000000F03F0000F07F00004043B6
:100C100001FCFFFF8A1500000000F0FF0000F0BF9C
:100C20000000E0410000F043FFFFEF3F5555D53F86
:100C30000000E03F4715F73FFE822B6544DF5DF87B
:100C40000BAE543E0020B1F5801F07DA3522304646
:100C5000614601F0C3F806466FF0340000EB215006
:100C6000A0F2FF300190C1F3130040F07F6141F02A
:100C700040510291FE498842D8BF002004DDFD4961
:100C80008142C8BF012001DD0F9008E000200F90D5
:100C90000198401C01900298A0F5801002900299E2
:100CA000F548784405910F9900EBC1001290D0E906
:100CB00000233046059900F071FFCDE90C01129830
:100CC000D0E900233046059900F0AAFA02460B4607
:100CD0000020EA4900F060FB0B46CDE9080102461E
:100CE000DDE90C0100F034FD0A90E5488A464FF03A
:100CF000000878440299006810904FF0005040EAD4
:100D000061010F9801EB804000F5002112981191CC
:100D1000D0E90023109800F041FF3246059B00F017
:100D20004BFE4246534600F013FDDDE91023064614
:100D300003914046514600F00BFDDDE90C2300F025
:100D40003BFE3246039B00F029FFDDE9082300F05B
:100D5000FFFC03910A9A129053461046194600F080
:100D6000F7FC06460246C7480B4602910621784426
:100D7000FFF7C5FC029B32460591089010461946C4
:100D800000F0E6FC059B089A00F0E2FC064609919B
:100D90005346404619460A9A00F042FA039B129ABB
:100DA00000F0D6FC3246099B00F03AFACDE9080182
:100DB000424653461046194600F0CAFC02460B460E
:100DC000029104900020B04900F02AFADDE90823DE
:100DD00000F026FA0E464246AB4B404600F0DEFEDF
:100DE000029B049A00F0DAFEDDE9082300F0E4FD3E
:100DF00042460491029033461046514600F0A8FC4A
:100E0000CDE90C0153460A9A0499029800F0A0FC1F
:100E100082460091334642460399129800F098FCAE
:100E20005246009B00F0FCF982460B4602460991AF
:100E3000DDE90C0100F0F4F9DDE90C230026884619
:100E4000304600F0ABFE5246099B00F0B5FDCDE9FF
:100E50000801434632464FF060408C4900F078FC70
:100E600082460491DDE90801894A884B00F070FC54
:100E700002910090434632468648874900F068FC5C
:100E8000029B009A00F0CCF9844B7B440F9A03EB51
:100E9000C203D3E9002300F0C3F900900291019846
:100EA00000F003FC0E9003915046029B009A0499B7
:100EB00000F0B6F97A4A7A440F9B02EBC303099318
:100EC000D3E9002300F0ACF9039B0E9A00F0A8F9D7
:100ED00088463046039B0E9A00F060FE099BD3E9DA
:100EE000002300F05BFE5246049B00F057FE029B7D
:100EF000009A00F061FD024600200B460290384641
:100F0000294600F025FC824603912B4638461946B7
:100F1000029A00F043FE3246434600F019FC524666
:100F2000039B00F07DF907468A4632464346294630
:100F3000029800F00DFC05460E463A46534600F076
:100F40006FF9584A8846914221DBA8EB020353EA25
:100F5000000210D12A46334600F020FECDE90310EE
:100F6000514A524B3846514600F05AF9DDE90332F6
:100F700000F0ECFC21D20220FFF768F9FFF724FC17
:100F80000A46214614B062F31E01BDE8F08D484BBD
:100F900028F000429A4210D3464A08EB020353EA73
:100FA00000027FF4C6AD2A46334600F0F7FD3A460C
:100FB000534600F0CBFC7FF6BCAD0022019228F036
:100FC00000403D493D4A01EB2051824223DA481C52
:100FD0004FF4801121FA00F04044394AC0F30A511D
:100FE0007A44384BA1F2FF31CB4020EA0303C0F32F
:100FF000130040F48010C1F11401C8401268019040
:10100000B8F1000FBCBF404201902846314600F0C5
:10101000C5FD05460E462A4633463846514600F081
:10102000FFF84FF000084246274B4046039100F07E
:101030008FFBCDE90C01254A254B4046039900F072
:1010400087FB029100902A4633464046039900F000
:10105000A5FD3A46534600F0AFFC1E4A1E4B00F079
:1010600077FB029B009A00F0DBF80746884635E0E4
:101070008E9803007AB60B00C21100000000F03F0A
:10108000FA110000261100000000084009C7EE3FD9
:10109000FD033ADCF5015B14E02F3EBEFA0F0000C1
:1010A000BE0F000000009040FE822B654715973C64
:1010B00000CC904000346F3F01FCFFFF0000E03F98
:1010C0000C0F0000FFFF0F00432EE63F396CA80C09
:1010D000615C20BEEF39FAFE422EE63F02460B4627
:1010E000DDE90C0100F09CF8DDE90C2305460E4615
:1010F00000F054FD3A46434600F05EFC07462A469F
:10110000334605911046194600F022FB82460246FE
:101110002E4888460B4605217844FFF7F0FA5246E0
:10112000434600F015FB2A46334600F045FC804656
:101130008A463A4628463146059B00F009FB3A4666
:10114000059B00F06DF80591009000224FF0804360
:101150004046514600F022FD074603914246534661
:101160002846314600F0F4FA3A46039B00F014F9A1
:10117000059B009A00F012FD2A46334600F00EFD52
:101180000022134B00F018FC054601980E4601EBB7
:1011900000510815002810DC28463146019A00F05D
:1011A0001DFEFFF798FA042808BFFFF715FB284635
:1011B0003146019A00F012FE05460B4614B02A464D
:1011C00058462146BDE8F04D00F0C2BAAC0D000013
:1011D0000000F03F2DE9F04106460F4600F0F8FB15
:1011E000041E0D4618BF0120284320F00040C0F126
:1011F0007F6000F1E040C00F0ED0301C18BF01200E
:10120000384320F00040C0F17F6000F1E040C00FA3
:1012100004BF0120FFF71AF820462946BDE8F081F7
:1012200010B591EA030F48BF83F0004300F1BE847C
:10123000841A71EB030C05D2121943EB0C03001B4B
:1012400061EB0C014FEA1154A4EB135CDFF81CE1D5
:101250001EEA430F18BF9EEA445F00F0748021EA43
:10126000045123EA0E0343F48013DCF1200E32D341
:1012700022FA0CFE10EB0E0023FA0CFE41EB0E01DD
:10128000CCF1200E03FA0EFE10EB0E00CCF1200E76
:1012900051F10001B1F5801F32D201EB045112FA75
:1012A0000EF2BDE8104058BF7047401C38BF5FEADF
:1012B000420218BF7047002814BF20F0010041F11E
:1012C00000014FEA410313F5001F38BF7047A1F139
:1012D000C04100F035BB012A43EB0302ACF1200C06
:1012E000DCF11F0E32BF4FF0000E23FA0CF310EBAF
:1012F000030041EB0451B4EB115FD0D0A1EB0451DA
:1013000001F58011490801EB04515FEA30000ED36A
:1013100050F1000038BF12FA0EFE08D1BDE81040AF
:10132000C9E7401C38BF5FEA4202CAD1C3E7BDE843
:1013300010404FEA410313F5001F38BF7047A1F179
:10134000C04100F0FDBA9EEA445F08D011EA5E0F8A
:10135000BDE8104004BF01F0004100207047BDE827
:10136000104070B500F09EFA64FBBE3E0000E0FF46
:1013700002494FF0000000F0FFBC00BF0000F87F02
:10138000491058BFC1F140415B1058BFC3F1404301
:101390008B42EFF3008070472DE9C04130B4DFF895
:1013A000A4C23CEA111418BF3CEA131400F0ED800B
:1013B0001CEA111481EA030544EAD57418BF1CEA3B
:1013C000131500F0C880A4EB050404F17F7404F544
:1013D00000344FF0004545EAC12145EAC32341EA04
:1013E000505143EA52534FEAC0204FEAC222994279
:1013F00008BF904200F09D804FEA13650FF244163B
:10140000765D4FEA134506FB05F7C7F1807706FBCB
:1014100007F74FEAD737A7FB03687642A7FB06CE4C
:10142000C8F5803838BFA8F1010807FB08E6A6FB1D
:10143000028C4FF0000EE6FB03CEDCF1000CCEF187
:10144000004E38BFAEF1010EA6FB0C584FF000075E
:10145000E6FB0E87A1FB08C6A0FB07CE16EB0E0627
:101460004FF0000545F10005E1FB076515F1E04E81
:101470007EBFA4F580345FEA46066D4116F1800711
:1014800045F100054FEA172747EA05674FEA15259A
:101490004FEA0666A6F1DE46B6F1805F20D93846EF
:1014A00005EBC47124F0010C01EB0C11BCF1FE6FD3
:1014B00002D8F0BCBDE8008124425CBF01F5801E6B
:1014C0009EEAC47F02D4F0BCBDE80081244200F152
:1014D0003980A1F1C041F0BCBDE8004100F030BA54
:1014E0004FEAD02040EA41504FEAD1214FEAD222C0
:1014F00042EA43524FEAD323A7FB028607FB036667
:1015000005FB02661EEA0E0F58BFA6EB0056B6EBAF
:1015100000564FEA520E4EEAC37E18EB0E0E56EB03
:10152000530EBCD518EB02085E417F1C55F1000537
:10153000B5E74FF480154FF000074FF000064FF06D
:101540000008ACE701F1C04101F000414FF000009C
:10155000F0BCBDE800810CEA131511EA0C1F00D0A5
:101560000CE013EA0C1F00F026804FF0000081EA27
:10157000030101F00041F0BCBDE80081F0BCBDE812
:10158000004181EA030100F0DBB9F0BCBDE8004195
:1015900070B500F087F900BF097EFC3E00F007B887
:1015A0004FF0000081EA030101F00041704781EA39
:1015B000030100F0C5B9F0BCBDE8004122494FF07D
:1015C00000007047FFFDFBF9F7F5F4F2F0EEEDEBEC
:1015D000E9E8E6E4E3E1E0DEDDDBDAD8D7D5D4D331
:1015E000D1D0CFCDCCCBCAC8C7C6C5C4C2C1C0BF7D
:1015F000BEBDBCBBBAB9B8B7B6B5B4B3B2B1B0AF83
:10160000AEADACABAAA9A8A8A7A6A5A4A3A3A2A166
:10161000A09F9F9E9D9C9C9B9A9999989797969521
:1016200095949393929191908F8F8E8E8D8C8C8BBD
:101630008B8A898988888787868585848483838245
:10164000828181800000FF070000F87F4FEA41039C
:101650004FEA5353A3F58063D3F11E03C8BFD3F100
:10166000210C0CDD4FF0004242EAC12242EA505206
:1016700032FA03FC8CEAE17CACEBE1707047102B92
:10168000C4BF0020704703F5787CBCF1FF3F04D055
:101690006FF0004282EA2100704770B500F002F955
:1016A0004992248000207047F2E710F0004248BFC2
:1016B0004042B0FA80F310FA03F10AD0C3F11D03DF
:1016C00003F5806302EB03524FEA415002EBD12154
:1016D00070474FF00000704751EA030C17D41CF517
:1016E000801F58BFBCF5801F00F10680994218BFCB
:1016F000704708BF9042704707D711F5801F58BF49
:1017000013F5801F19D499427047894270471CF520
:10171000801F08D5BCF5801FF7D58B4218BF7047D6
:1017200008BF824270474FF4001C1CEB410F38BFCA
:101730001CEB430F01D28B42704770B500F0B2F83A
:10174000922449004FF000514FF08053FFF718BE2C
:1017500070B5DFF848C11CEA111E1EBF1CEA131544
:101760009EEA0C0F95EA0C0F00F06F8081EA0304EB
:101770004EEAD47EAE4421EA4C1123EA4C1341F4E4
:10178000801143F48013AEF17F7EA1FB024CA0FBDD
:101790000365361955EB0C05A1FB034C4CF1000316
:1017A000A0FB021C16EB0C06654153F10003094235
:1017B00018BF46F0010613F4007F0BD14FEA033146
:1017C0004FEA053041EA155140EA165034036FF0F4
:1017D00003020AE04FEAC3214FEAC52041EA55510E
:1017E00040EA5650F4026FF0020202EB2E4201EB87
:1017F000025585EACE710AD05FEA440C18BF24F086
:10180000004450F1000041F1000120EAD47040F2A0
:10181000FE7C624500D270BDA84214BF4FF08044E8
:101820004FF04044002E08BF0024BEF1806FA8BFD7
:10183000A1F1C041BDE8704080F2828001F1C04159
:1018400001F000414FF0000070470CEA13159EEACA
:101850000C0F18BF95EA0C0F06D081EA030E4FF06B
:1018600000000EF0004170BD00F01CF88900013E40
:1018700000F007B800F009B84FEA430C5FEA5C5C7F
:1018800008D081EA030100F05BB84FEA410C5FEA3F
:101890005C5CF6D102494FF0000070470000FF0782
:1018A0000000F87F0EF1020E2EF0030E5EF8046BBE
:1018B000364205D4012A43EB030515F5001F12D863
:1018C000012841EB010C1CF5001F0CD80ED14FEA8A
:1018D000D17C0CEB4C0C0CF1020C15F5001F08BF71
:1018E0004CEBD37C04E04FF0080C01E04FEAD37CD2
:1018F0000CEB4C0526FA05F606F00706B6F1040CCB
:1019000006D20EEB860CBDE870404CF0010C60472F
:10191000DFE80CF0090B02024FF00041A1F50021B5
:101920004FF0000070BD19461046012851EB01042C
:1019300018BFD4F5001484BF002001F0004170BD31
:101940000808A0F500114FEA3101704753EA010C75
:1019500017D41CF5801F58BFBCF5801F00F106800E
:101960008B4218BF704708BF8242704707D713F5F4
:10197000801F58BF11F5801F19D48B4270479B42BE
:1019800070471CF5801F08D5BCF5801FF7D599421C
:1019900018BF704708BF904270474FF4001C1CEB03
:1019A000430F38BF1CEB410F01D2994270470FB46F
:1019B0000CBC03BCFFF7C1BE10B591EA030F81F068
:1019C00000413FF535AC83F0004300F0EFB8000074
:1019D0002DE9F04101F5801CBCF5001FC0F2C38069
:1019E0004FEA115C21EA0C5141F480110CF1FD0C1D
:1019F0005FEA5C0C0CF5C07C01D3400049418902D0
:101A000041EA905187023BA48E0EA45D0A0C04FBB0
:101A100004F602FB06F6C6F14046A4FB0662F60D8C
:101A200046EA422606FB06F4A4FB01235242C3F118
:101A3000404338BF5B1EA6FB02420024E6FB0324A2
:101A4000D20B42EA4446A6FB0623A1FB02E2A3FB1B
:101A500007E4A4184FF0000252F10002E3FB014238
:101A60006442C2F1404E38BFAEF1010EA6FB042322
:101A70004FF00002E6FB0E32A2FB0346B6194FF010
:101A8000000454F10004E2FB0264A1FB06E6A4FB9F
:101A900007E816EB08064FF0000858F10008E4FBD1
:101AA00001687642C8F1405838BFA8F10108A2FB8E
:101AB00006E4A3FB08E52D194FF0000454F10004DF
:101AC000E2FB0854A1FB05E6A7FB04E818EB0608B7
:101AD0004FF0000656F10006E1FB048618F12005E0
:101AE00056F10006A80940EA8660B109A8F11B0872
:101AF00008F03F08B8F10A0F1CD901EB0C51BDE802
:101B0000F08100BFFCF5EEE8E2DDD8D3CFCBC7C350
:101B1000C0BDB9B6B4B1AEACA9A7A5A3A19F9D9B0A
:101B20009A9896959392908F8D8C8B8988878685CD
:101B300084838281A0FB006800FB01F208EB42086D
:101B4000B8EB872807D5341858EB0104D5D5401CCD
:101B500051F10001D1E7341A78EB0104CDD4401ED5
:101B600071F10001C9E75FEA4C0C5FEA9C5C0DD1A2
:101B700005D301F000414FF00000BDE8F081BDE861
:101B8000F04170B5FFF78EFE6DDBFFBEBDE8F041A2
:101B900001494FF0000070470000F87F10B591EA4E
:101BA000030F48BF83F000433FF542AB841A71EB4B
:101BB000030C07D28CF0004C121943EB0C03001BF2
:101BC00061EB0C014FEA1154A4EB135CDFF8A4E1C4
:101BD0001EEA430F18BF9EEA445F00F0B48021EA7A
:101BE000045123EA6E035242C3EB6E0338BF5B1EFF
:101BF000DCF1200E25D322FA0CFE10EB0E0043FA86
:101C00000CFE41EB0E01CCF1200E03FA0EFE10EBA0
:101C10000E00CCF1200E51F1000129D401EB04514A
:101C200012FA0EF2BDE8104058BF7047401C1CBFAE
:101C3000B2F1004F704700280CBF491C20F0010092
:101C4000704712EB020E43EB030218BF4FF0010E78
:101C50004EEA4202ACF1200CDCF11E0E56D943FADA
:101C60000CFE10EB0E00CCF11E0E51F1FF31D5D55C
:101C70000EF1010E12FA0EFE404141EB010101EBA3
:101C8000445C5FEA5C5C10D901EB045110EBDE7040
:101C900038BFBEF1004FBDE8104018BF70470028A4
:101CA0000CBF491C20F00100704734D24FEAD42CFD
:101CB00024F4006411F500111BD0B1FA81F20B3A43
:101CC000A41AA41ED2F12003914030FA03F3194361
:101CD000904001EBCC7101EB0451002CBDE81040A9
:101CE000A8BF704701F1C04101F000414FF0000072
:101CF0007047B0FA80F310FA03F102D1BDE810404A
:101D00007047E41A173C4805C90AE2E701EB0451A1
:101D1000BDE81040704749104FEA300001EB045114
:101D2000BDE8104002E04FF0000170474A0008BFD4
:101D30000042F8D0B2F5001F28BF704701F0004103
:101D40004FF0000070479EEA445F07D011EA5E0F33
:101D5000BDE8104004BF002100207047BDE81040DE
:101D600070B5FFF79FFD00BF40DFF63E104683F0E1
:101D7000004170470000E0FF0CF00F03092B08BF83
:101D8000082000F059800A2B0BD0082B18BF704791
:101D900008BF1CF0400F0AD04FF000004FF00001C8
:101DA00070471CF0400F18BF4FF0004070471CF008
:101DB000100F08D000F07F4220F0704342EAD301B8
:101DC0004FEA4370704700F0604021F07F4242EAE2
:101DD000000201F07F4040EA727070474FF0FF0C44
:101DE0004CF4E06C1CEA11531CBF9CEA030C9445B4
:101DF000C2BFDA4201EB02517047002B0DD0BCF19B
:101E0000000F0FD001F00041002AA4BF41F0E041D3
:101E100041F07F614FF00000704701F000414FF04A
:101E20000000704750EA01334FF09B0C18BF4CF094
:101E3000806C7FF49DAA70471CF4801F11D01CF4A5
:101E4000E02F03D06FEACC31490070474FF040508B
:101E5000EFF3008222F0704242EA000282F300882F
:101E600070474FF000007047000000000000F03F96
:101E7000000000000000F83F00000000000000002B
:101E80000000004003B8E23F000000000000000036
:101E900006D0CF43EBFD4C3E033333333333E33FC4
:101EA000FFAB6FDBB66DDB3F4D268F515555D53FF0
:101EB00001411DA96074D13F65DBC9934A86CD3FBE
:101EC000EF4E454A287ECA3F3E5555555555C53FAC
:101ED00093BDBE166CC166BF2CDE25AF6A56113F9E
:101EE000F16BD2C541BDBBBED0A4BE726937663EA0
:101EF0000000000000000000181F00080000002083
:101F000014000000280100082C1F00081800002001
:101F10004807000044010008F801C000B401E401D2
:0C1F2000CC006C017C01C001FC01EC0154
:04000005080001C12D
:00000001FF
