:020000040800F2
:10000000680600206D0100087501000877010008EE
:10001000790100087B0100087D0100080000000054
:100020000000000000000000000000007F01000848
:10003000810100080000000083010008A9030008F6
:100040008701000887010008870100088701000870
:100050008701000887010008870100088701000860
:100060008701000887010008870100088701000850
:100070008701000887010008870100088701000840
:100080008701000887010008870100088701000830
:100090008701000887010008870100088701000820
:1000A0008701000887010008870100088701000810
:1000B0008701000887010008870100088701000800
:1000C00087010008870100088701000887010008F0
:1000D00087010008870100088701000887010008E0
:1000E00087010008870100088701000800F002F876
:1000F00000F02CF80AA090E8000C82448344AAF196
:100100000107DA4501D100F021F8AFF2090EBAE893
:100110000F0013F0010F18BFFB1A43F0010318473B
:10012000E0030000F0030000002300240025002667
:10013000103A28BF78C1FBD8520728BF30C148BF4A
:100140000B6070471FB51FBD10B510BD00F031F832
:100150001146FFF7F7FF00F09DF900F04FF803B4E8
:10016000FFF7F2FF03BC00F057F800000948804792
:1001700009480047FEE7FEE7FEE7FEE7FEE7FEE789
:10018000FEE7FEE7FEE7FEE704480549054A064BA1
:1001900070470000B9030008ED0000086800002067
:1001A000680600206802002068020020704770473F
:1001B0007047754600F02CF8AE4605006946534678
:1001C00020F00700854618B020B5FFF7DDFFBDE839
:1001D00020404FF000064FF000074FF000084FF0AE
:1001E000000BAC46ACE8C009ACE8C009ACE8C009FB
:1001F000ACE8C00921F007018D46704710B50446F0
:10020000AFF300802046BDE81040FFF7A8BF000014
:10021000004870470000002001491820ABBEFEE7EF
:10022000260002007047000080B500F001F880BD94
:1002300084B000200390029041F20001C4F2020158
:10024000086840F480300860FFE741F20000C4F223
:100250000200006800F4003002900398013003901F
:10026000FFE702990020019039B9FFE70398B0F544
:10027000A06018BF01200190FFE70198C007002887
:10028000E3D1FFE741F20000C4F2020000688003FE
:10029000002803D5FFE70120029002E00020029031
:1002A000FFE70298012851D1FFE742F20001C4F2B2
:1002B0000201086840F010000860086820F007009C
:1002C0000860086840F00200086041F20401C4F2CE
:1002D000020100910868086008680860086840F436
:1002E00080600860086820F47C100860086840F4AA
:1002F000E810086041F20001C4F20201086840F011
:1003000080700860FFE741F20000C4F2020000685C
:100310008001002801D4FFE7F5E741F20401C4F2AF
:100320000201086820F003000860086840F002003D
:100330000860FFE741F20400C4F20200006800F028
:100340000C00082801D0FFE7F4E700E0FFE704B065
:100350007047000080B582B0009000980138B0F17D
:10036000807F03D3FFE70120019019E00098013856
:100370004EF21401CEF2000108604FF0FF300F2161
:1003800000F04EF84EF21801CEF200010020086095
:100390004EF21002CEF20002072111600190FFE739
:1003A000019802B080BD000040F26001C2F200017D
:1003B000086801300860704780B541F20002C4F25D
:1003C0000202106840F00100106041F20401C4F222
:1003D000020108680023CFF6FF0318400860106888
:1003E0004FF6FF73CFF6F66318401060106820F4E4
:1003F00080201060086820F4FE00086041F20801C7
:10040000C4F202014FF41F000860FFF70DFF4EF623
:100410000851CEF200014FF00060086080BD00007E
:1004200082B08DF8070000919DF9070000280AD4DA
:10043000FFE7009800019DF907104EF20042CEF24E
:10044000000288540BE0009800019DF8071001F0AD
:100450000F014EF61452CEF200028854FFE702B0AC
:100460007047000082B0019040F26000C2F20000CC
:1004700000680090FFE740F26000C2F200000068F0
:100480000099401A0199884201D2FFE7F3E702B0D0
:100490007047000080B582B00020019041F2180240
:1004A000C4F20202116841F00C01116040F60442EE
:1004B000C4F2010244F24441C2F24441116040F6E8
:1004C0000002C4F2010244F22221C4F2444111604C
:1004D00040F60C01C4F20101086042F22830FFF737
:1004E00039FFFFE740F60C01C4F20101086880F013
:1004F000020008604FF47A70FFF7B4FFF2E70000E3
:10050000100500080000002068060000280100080F
:040000050800016D81
:00000001FF
