:020000040800F2
:10000000780600206D0100087501000877010008DE
:10001000790100087B0100087D0100080000000054
:100020000000000000000000000000007F01000848
:10003000810100080000000083010008D9040008C5
:100040008701000887010008870100088701000870
:100050008701000887010008870100088701000860
:100060008701000887010008870100088701000850
:100070008701000887010008870100088701000840
:100080008701000887010008870100088701000830
:100090008701000887010008870100088502000821
:1000A0008701000887010008870100088701000810
:1000B0008701000887010008510500088701000832
:1000C00087010008870100088701000887010008F0
:1000D00087010008870100088701000887010008E0
:1000E00029020008870100088701000800F002F8D3
:1000F00000F02CF80AA090E8000C82448344AAF196
:100100000107DA4501D100F021F8AFF2090EBAE893
:100110000F0013F0010F18BFFB1A43F0010318473B
:100120001006000020060000002300240025002601
:10013000103A28BF78C1FBD8520728BF30C148BF4A
:100140000B6070471FB51FBD10B510BD00F036F82D
:100150001146FFF7F7FF00F0AFFA00F054F803B4D0
:10016000FFF7F2FF03BC00F057F800000948804792
:1001700009480047FEE7FEE7FEE7FEE7FEE7FEE789
:10018000FEE7FEE7FEE7FEE704480549054A064BA1
:1001900070470000E9040008ED0000087800002026
:1001A000780600207802002078020020704770470F
:1001B0007047000000487047000000207546FFF7B8
:1001C000F9FFAE4605006946534620F00700854614
:1001D00018B020B5FFF7D8FFBDE820404FF000066B
:1001E0004FF000074FF000084FF0000BAC46ACE8B2
:1001F000C009ACE8C009ACE8C009ACE8C00921F00E
:1002000007018D46704710B50446AFF300802046C5
:10021000BDE81040FFF7A3BF01491820ABBEFEE7C1
:10022000260002007047000081B00A208DF803000C
:1002300040F21440C4F2010000689DF80310C84069
:10024000C007E8B1FFE79DF80310012000FA01F2B2
:1002500040F21441C4F2010108681043086040F202
:100260006801C2F200010020086040F26401C2F29D
:100270000001086040F26001C2F200010870FFE76F
:1002800001B0704780B582B006208DF8070040F2BB
:100290001440C4F2010000689DF80710C840C00770
:1002A00000284BD0FFE79DF80710012000FA01F26B
:1002B00040F21441C4F2010108681043086040F2A2
:1002C0006100C2F200000178C94301700078D0B12A
:1002D000FFE740F60001C4F20001088840F0010089
:1002E000088040F26001C2F200010020087040F274
:1002F0000041C4F20101086820F4806008602820F1
:1003000000F084F919E040F60001C4F20001088809
:1003100020F00100088040F26001C2F200010120DB
:10032000087040F20041C4F20101086840F48060A6
:100330000860282000F086F9FFE7FFE702B080BDE3
:1003400080B582B00C21C4F201014FF480700860C6
:100350001021C4F20101086040F20041C4F2010121
:10036000086840F48860086040F20841C4F2010166
:10037000086820F48860086040F20C41C4F2010172
:10038000086840F48860086028200090012100F08F
:1003900071F917200190022100F06CF9009800F02B
:1003A00051F9019800F04EF902B080BD80B500F01F
:1003B00001F880BD84B000200390029041F200015A
:1003C000C4F20201086840F480300860FFE741F29F
:1003D0000000C4F20200006800F4003002900398AC
:1003E00001300390FFE702990020019039B9FFE73F
:1003F0000398B0F5A06018BF01200190FFE70198B5
:10040000C0070028E3D1FFE741F20000C4F2020078
:1004100000688003002803D5FFE70120029002E076
:1004200000200290FFE70298012851D1FFE742F235
:100430000001C4F20201086840F01000086008687A
:1004400020F007000860086840F00200086041F2F0
:100450000401C4F20201009108680860086808609D
:10046000086840F480600860086820F47C10086028
:10047000086840F4E810086041F20001C4F202018B
:10048000086840F080700860FFE741F20000C4F2A5
:10049000020000688001002801D4FFE7F5E741F27F
:1004A0000401C4F20201086820F003000860086833
:1004B00040F002000860FFE741F20400C4F20200CD
:1004C000006800F00C00082801D0FFE7F4E700E026
:1004D000FFE704B07047000040F27001C2F2000173
:1004E000086801300860704780B541F20002C4F22C
:1004F0000202106840F00100106041F20401C4F2F1
:10050000020108680023CFF6FF0318400860106856
:100510004FF6FF73CFF6F66318401060106820F4B2
:1005200080201060086820F4FE00086041F2080195
:10053000C4F202014FF41F000860FFF737FF4EF6C8
:100540000851CEF200014FF00060086080BD00004D
:1005500040F61001C4F200010020088040F26C0057
:10056000C2F200000168C9430160006848B9FFE7B2
:1005700040F60C01C4F20101086840F00100086077
:1005800008E040F60C01C4F20101086820F0010007
:100590000860FFE77047000080B541F21C01C4F21B
:1005A0000201086840F00400086041F20401C4F24E
:1005B0000201086840F4E060086040F62801C4F2D7
:1005C000000140F28330088040F62C01C4F20001A3
:1005D00042F21070088040F62401C4F200010020AD
:1005E000088040F60C01C4F20001088840F00100C8
:1005F000088040F60001C4F20001088840F00100C4
:1006000008801E2000F01EF880BD000081B08DF82B
:1006100003009DF90300002812D4FFE79DF90310A1
:1006200001F01F02012090404A094EF28011CEF2E3
:10063000000141F82200BFF34F8FBFF36F8FFFE738
:1006400001B0704781B08DF803009DF903000028C8
:100650000ED4FFE79DF9031001F01F020120904026
:100660004A094EF20011CEF2000141F82200FFE7E4
:1006700001B0704782B08DF8070000919DF9070026
:1006800000280AD4FFE7009800019DF907104EF2F8
:100690000042CEF2000288540BE0009800019DF861
:1006A000071001F00F014EF61452CEF200028854EA
:1006B000FFE702B07047000080B582B000200190D3
:1006C00041F21802C4F20202116841F00D011160FA
:1006D00041F20402C4F20202116841F4C0611160E7
:1006E00040F60002C4F2010242F22221C4F2424169
:1006F000116040F60402C4F201024FF02231116091
:1007000040F60042C4F201024FF04431116040F65D
:100710000C01C4F20101086040F60C41C4F2010171
:10072000086062B6FFF738FFFFF70AFEFFE7FEE753
:10073000400700080000002078060000280100089B
:040000050800016D81
:00000001FF
