:020000040800F2
:10000000780600208901000891010008930100088A
:100010009501000897010008990100080000000000
:100020000000000000000000000000009B0100082C
:100030009D010008000000009F010008A1010008C8
:10004000A3010008A3010008A3010008A301000800
:10005000A3010008A3010008A3010008A3010008F0
:10006000A3010008A3010008F1020008A301000891
:10007000A3010008A3010008A3010008A3010008D0
:10008000A3010008A3010008A3010008A3010008C0
:10009000A3010008A3010008A3010008250300082C
:1000A000A3010008A3010008A3010008A3010008A0
:1000B000FD05000881060008A3010008A30100084F
:1000C000A3010008A3010008A3010008A301000880
:1000D000A3010008A3010008A3010008A301000870
:1000E000A3010008A3010008A301000800F002F822
:1000F00000F03AF80AA090E8000C82448344AAF188
:100100000107DA4501D100F02FF8AFF2090EBAE885
:100110000F0013F0010F18BFFB1A43F0010318473B
:10012000D4070000F4070000103A24BF78C878C153
:10013000FAD8520724BF30C830C144BF04680C60ED
:10014000704700000023002400250026103A28BF35
:1001500078C1FBD8520728BF30C148BF0B60704739
:100160001FB51FBD10B510BD00F031F81146FFF7E7
:10017000F7FF00F0A5FB00F04FF803B4FFF7F2FF24
:1001800003BC00F057F800000948804709480047C1
:10019000FEE7FEE7FEE7FEE7FEE7FEE7FEE7FEE737
:1001A000FEE7FEE704480549054A064B7047000094
:1001B00095050008ED000008780000207806002072
:1001C000780200207802002070477047704775461B
:1001D00000F02CF8AE4605006946534620F00700B3
:1001E000854618B020B5FFF7DDFFBDE820404FF091
:1001F00000064FF000074FF000084FF0000BAC4630
:10020000ACE8C009ACE8C009ACE8C009ACE8C0097A
:1002100021F007018D46704710B50446AFF300800A
:100220002046BDE81040FFF7A8BF00000048704717
:100230000800002001491820ABBEFEE7260002009E
:100240007047000081B042F20841C4F20101009100
:10025000086840F002000860086820F40060086048
:1002600042F21042C4F20102106840F00200106035
:1002700042F23442C4F20102106840F008001060FB
:10028000086840F480100860086840F46020086046
:1002900042F20442C4F20102106820F02000106013
:1002A000086840F001000860086840F00400086039
:1002B000FFE742F20840C4F201000068400700284E
:1002C00001D5FFE7F5E742F20841C4F201010868F1
:1002D00040F48000086001B07047000041F2040162
:1002E000C4F20201086840F4C06008607047000072
:1002F00040F21440C4F201000068C006002810D586
:10030000FFE740F21441C4F20101086840F0100018
:10031000086040F26C01C2F2000108680130086018
:10032000FFE7704740F21440C4F201000068800605
:10033000002810D5FFE740F21441C4F2010108681B
:1003400040F02000086040F26C01C2F20001086831
:1003500001300860FFE770470C21C4F20101112051
:10036000086040F20041C4F20101086840F030002A
:10037000086040F20841C4F20101086840F0300012
:10038000086040F20C41C4F20101086840F03000FE
:100390000860704780B584B062B61C2000900121CF
:1003A00000F06CFA1D200190022100F067FA0A208B
:1003B0000290032100F062FA17200390042100F05C
:1003C0005DFA009800F042FA019800F03FFA0298B6
:1003D00000F03CFA039800F039FA04B080BD000048
:1003E00041F21801C4F20201086840F00D000860F3
:1003F00041F21C02C4F20202106840F033001060A7
:10040000086840F4007008607047000040F6000182
:10041000C4F2010142F22420C2F22220086040F618
:100420000401C4F2010142F22220C4F242400860F9
:1004300040F60041C4F2010144F24040C4F64430A9
:10044000086040F60441C4F201014FF044300860F6
:1004500040F60C01C4F201010020086040F60C4196
:10046000C4F201010860704780B500F001F880BD5A
:1004700084B000200390029041F20001C4F2020116
:10048000086840F480300860FFE741F20000C4F2E1
:100490000200006800F400300290039801300390DD
:1004A000FFE702990020019039B9FFE70398B0F502
:1004B000A06018BF01200190FFE70198C007002845
:1004C000E3D1FFE741F20000C4F2020000688003BC
:1004D000002803D5FFE70120029002E000200290EF
:1004E000FFE70298012851D1FFE742F20001C4F270
:1004F0000201086840F010000860086820F007005A
:100500000860086840F00200086041F20401C4F28B
:10051000020100910868086008680860086840F4F3
:1005200080600860086820F47C100860086840F467
:10053000E810086041F20001C4F20201086840F0CE
:1005400080700860FFE741F20000C4F2020000681A
:100550008001002801D4FFE7F5E741F20401C4F26D
:100560000201086820F003000860086840F00200FB
:100570000860FFE741F20400C4F20200006800F0E6
:100580000C00082801D0FFE7F4E700E0FFE704B023
:100590007047000080B541F20002C4F20202106808
:1005A00040F00100106041F20401C4F20201086849
:1005B0000023CFF6FF031840086010684FF6FF7362
:1005C000CFF6F66318401060106820F480201060A9
:1005D000086820F4FE00086041F20801C4F202013C
:1005E0004FF41F000860FFF73FFF4EF60851CEF2B0
:1005F00000014FF00060086080BD00001021C4F2CF
:1006000000010020088040F26C01C2F200010A687B
:1006100040F20403C2F200031B68B2FBF3F24FF492
:1006200016735A4340F27003C2F200031A60086066
:100630007047000041F21C01C4F20201086840F05A
:10064000010008602821C4F20001232008802C2129
:10065000C4F200014CF2503008802421C4F20001A1
:10066000002008800C21C4F20001088840F001003D
:1006700008804FF08041088840F0010008807047F2
:1006800040F21041C4F200010020088042F24C40C8
:10069000C4F20100016840F20000C2F200000160F3
:1006A0000068B0F57A6F08D9FFE740F20001C2F2A6
:1006B00000014FF47A60086012E040F20000C2F2DC
:1006C0000000006840F60101884208D8FFE740F2C8
:1006D0000001C2F2000140F602000860FFE7FFE7F8
:1006E00040F20000C2F2000000684DF63872CFF60A
:1006F000FC72642100FB012040084BF25531C2F22C
:100700009B11A0FB0110C10940F26800C2F2000079
:100710000160006844F62061484348F21F51C5F269
:10072000EB11A0FB0110400940F63401C4F20001B6
:100730000880704741F21C01C4F20201086840F0D1
:100740000200086040F22841C4F200011120088034
:1007500040F22C41C4F2000142F21070088040F2D5
:100760002441C4F200010020088040F20C41C4F290
:100770000001088840F00100088040F20041C4F206
:100780000001088840F001000880704741F21C0118
:10079000C4F20201086840F00400086040F6280135
:1007A000C4F200011120088040F62C01C4F20001BF
:1007B00044F62060088040F62401C4F200010020C5
:1007C000088040F63401C4F200014FF47A700880CA
:1007D00040F61801C4F20001088840F0600008806B
:1007E00040F62001C4F20001088840F001000880B2
:1007F00040F60001C4F20001088840F001000880C2
:100800007047000041F21C01C4F20201086840F088
:100810001000086041F22801C4F200011120088094
:1008200041F22C01C4F200014FF6FF70088041F242
:100830002401C4F200010020088041F20001C4F24A
:100840000001088840F001000880704781B08DF8F1
:1008500003009DF9030000280ED4FFE79DF9031063
:1008600001F01F02012090404A094EF20011CEF221
:10087000000141F82200FFE701B0704782B08DF817
:10088000070000919DF9070000280AD4FFE70098AF
:1008900000019DF907104EF20042CEF2000288548A
:1008A0000BE0009800019DF8071001F00F014EF6D3
:1008B0001452CEF200028854FFE702B070470000E5
:1008C00080B582B000200190FFF708FDFFF788FD9A
:1008D000FFF79CFDFFF75EFDFFF794FFFFF756FF64
:1008E000FFF7A8FEFFF726FFFFF736FDFFF7AAFC8C
:1008F000FFE7FEE7140900080000002008000000E0
:10090000280100081C0900080800002070060000EB
:0C0910004401000802080000780000000C
:040000050800018965
:00000001FF
